{
  "_format": "hh-sol-artifact-1",
  "contractName": "PoemPortal",
  "sourceName": "contracts/PoemPortal.sol",
  "abi": [
    {
      "inputs": [],
      "stateMutability": "payable",
      "type": "constructor"
    },
    {
      "anonymous": false,
      "inputs": [
        {
          "indexed": true,
          "internalType": "address",
          "name": "from",
          "type": "address"
        },
        {
          "indexed": false,
          "internalType": "uint256",
          "name": "timestamp",
          "type": "uint256"
        },
        {
          "indexed": false,
          "internalType": "string",
          "name": "message",
          "type": "string"
        }
      ],
      "name": "NewPoem",
      "type": "event"
    },
    {
      "inputs": [],
      "name": "getAllPoems",
      "outputs": [
        {
          "components": [
            {
              "internalType": "address",
              "name": "poemr",
              "type": "address"
            },
            {
              "internalType": "string",
              "name": "message",
              "type": "string"
            },
            {
              "internalType": "uint256",
              "name": "timestamp",
              "type": "uint256"
            }
          ],
          "internalType": "struct PoemPortal.Poem[]",
          "name": "",
          "type": "tuple[]"
        }
      ],
      "stateMutability": "view",
      "type": "function"
    },
    {
      "inputs": [],
      "name": "getTotalPoems",
      "outputs": [
        {
          "internalType": "uint256",
          "name": "",
          "type": "uint256"
        }
      ],
      "stateMutability": "view",
      "type": "function"
    },
    {
      "inputs": [
        {
          "internalType": "address",
          "name": "",
          "type": "address"
        }
      ],
      "name": "lastPoemdAt",
      "outputs": [
        {
          "internalType": "uint256",
          "name": "",
          "type": "uint256"
        }
      ],
      "stateMutability": "view",
      "type": "function"
    },
    {
      "inputs": [
        {
          "internalType": "string",
          "name": "_message",
          "type": "string"
        }
      ],
      "name": "poem",
      "outputs": [],
      "stateMutability": "nonpayable",
      "type": "function"
    }
  ],
  "bytecode": "0x60806040526200004f6040518060400160405280601981526020017f57652068617665206265656e20636f6e737472756374656421000000000000008152506200007760201b620006031760201c565b606444426200005f9190620001c4565b6200006b919062000261565b60018190555062000308565b62000117816040516024016200008e919062000184565b6040516020818303038152906040527f41304fac000000000000000000000000000000000000000000000000000000007bffffffffffffffffffffffffffffffffffffffffffffffffffffffff19166020820180517bffffffffffffffffffffffffffffffffffffffffffffffffffffffff83818316178352505050506200011a60201b60201c565b50565b60008151905060006a636f6e736f6c652e6c6f679050602083016000808483855afa5050505050565b60006200015082620001a8565b6200015c8185620001b3565b93506200016e8185602086016200022b565b6200017981620002f7565b840191505092915050565b60006020820190508181036000830152620001a0818462000143565b905092915050565b600081519050919050565b600082825260208201905092915050565b6000620001d18262000221565b9150620001de8362000221565b9250827fffffffffffffffffffffffffffffffffffffffffffffffffffffffffffffffff0382111562000216576200021562000299565b5b828201905092915050565b6000819050919050565b60005b838110156200024b5780820151818401526020810190506200022e565b838111156200025b576000848401525b50505050565b60006200026e8262000221565b91506200027b8362000221565b9250826200028e576200028d620002c8565b5b828206905092915050565b7f4e487b7100000000000000000000000000000000000000000000000000000000600052601160045260246000fd5b7f4e487b7100000000000000000000000000000000000000000000000000000000600052601260045260246000fd5b6000601f19601f8301169050919050565b61101580620003186000396000f3fe608060405234801561001057600080fd5b506004361061004c5760003560e01c80632d361ef2146100515780634d5c41a01461006f5780636ad49b471461008b5780638dda7b87146100bb575b600080fd5b6100596100d9565b6040516100669190610bd3565b60405180910390f35b610089600480360381019061008491906108aa565b61022a565b005b6100a560048036038101906100a09190610881565b6105e2565b6040516100b29190610ca7565b60405180910390f35b6100c36105fa565b6040516100d09190610ca7565b60405180910390f35b60606002805480602002602001604051908101604052809291908181526020016000905b8282101561022157838290600052602060002090600302016040518060600160405290816000820160009054906101000a900473ffffffffffffffffffffffffffffffffffffffff1673ffffffffffffffffffffffffffffffffffffffff1673ffffffffffffffffffffffffffffffffffffffff16815260200160018201805461018690610e98565b80601f01602080910402602001604051908101604052809291908181526020018280546101b290610e98565b80156101ff5780601f106101d4576101008083540402835291602001916101ff565b820191906000526020600020905b8154815290600101906020018083116101e257829003601f168201915b50505050508152602001600282015481525050815260200190600101906100fd565b50505050905090565b42603c600360003373ffffffffffffffffffffffffffffffffffffffff1673ffffffffffffffffffffffffffffffffffffffff168152602001908152602001600020546102779190610dc4565b106102b7576040517f08c379a00000000000000000000000000000000000000000000000000000000081526004016102ae90610c87565b60405180910390fd5b42600360003373ffffffffffffffffffffffffffffffffffffffff1673ffffffffffffffffffffffffffffffffffffffff16815260200190815260200160002081905550600160008082825461030d9190610dc4565b925050819055506103536040518060400160405280600781526020017f25732073656e74000000000000000000000000000000000000000000000000008152503361069c565b600260405180606001604052803373ffffffffffffffffffffffffffffffffffffffff16815260200183815260200142815250908060018154018082558091505060019003906000526020600020906003020160009091909190915060008201518160000160006101000a81548173ffffffffffffffffffffffffffffffffffffffff021916908373ffffffffffffffffffffffffffffffffffffffff1602179055506020820151816001019080519060200190610412929190610761565b50604082015181600201555050606460015442446104309190610dc4565b61043a9190610dc4565b6104449190610eca565b60018190555060326001541161058f576104936040518060400160405280600781526020017f257320776f6e21000000000000000000000000000000000000000000000000008152503361069c565b600064e8d4a510009050478111156104e0576040517f08c379a00000000000000000000000000000000000000000000000000000000081526004016104d790610c47565b60405180910390fd5b60003373ffffffffffffffffffffffffffffffffffffffff168260405161050690610bbe565b60006040518083038185875af1925050503d8060008114610543576040519150601f19603f3d011682016040523d82523d6000602084013e610548565b606091505b505090508061058c576040517f08c379a000000000000000000000000000000000000000000000000000000000815260040161058390610c67565b60405180910390fd5b50505b3373ffffffffffffffffffffffffffffffffffffffff167f9c18a831a4d08ec7d5adc24094adfb2ddc1a2c68e9aaaf2d913c02bc2d3ea70542836040516105d7929190610cc2565b60405180910390a250565b60036020528060005260406000206000915090505481565b60008054905090565b610699816040516024016106179190610bf5565b6040516020818303038152906040527f41304fac000000000000000000000000000000000000000000000000000000007bffffffffffffffffffffffffffffffffffffffffffffffffffffffff19166020820180517bffffffffffffffffffffffffffffffffffffffffffffffffffffffff8381831617835250505050610738565b50565b61073482826040516024016106b2929190610c17565b6040516020818303038152906040527f319af333000000000000000000000000000000000000000000000000000000007bffffffffffffffffffffffffffffffffffffffffffffffffffffffff19166020820180517bffffffffffffffffffffffffffffffffffffffffffffffffffffffff8381831617835250505050610738565b5050565b60008151905060006a636f6e736f6c652e6c6f679050602083016000808483855afa5050505050565b82805461076d90610e98565b90600052602060002090601f01602090048101928261078f57600085556107d6565b82601f106107a857805160ff19168380011785556107d6565b828001600101855582156107d6579182015b828111156107d55782518255916020019190600101906107ba565b5b5090506107e391906107e7565b5090565b5b808211156108005760008160009055506001016107e8565b5090565b600061081761081284610d23565b610cf2565b90508281526020810184848401111561082f57600080fd5b61083a848285610e56565b509392505050565b60008135905061085181610fc8565b92915050565b600082601f83011261086857600080fd5b8135610878848260208601610804565b91505092915050565b60006020828403121561089357600080fd5b60006108a184828501610842565b91505092915050565b6000602082840312156108bc57600080fd5b600082013567ffffffffffffffff8111156108d657600080fd5b6108e284828501610857565b91505092915050565b60006108f78383610b50565b905092915050565b61090881610e1a565b82525050565b61091781610e1a565b82525050565b600061092882610d63565b6109328185610d86565b93508360208202850161094485610d53565b8060005b85811015610980578484038952815161096185826108eb565b945061096c83610d79565b925060208a01995050600181019050610948565b50829750879550505050505092915050565b600061099d82610d6e565b6109a78185610da2565b93506109b7818560208601610e65565b6109c081610fb7565b840191505092915050565b60006109d682610d6e565b6109e08185610db3565b93506109f0818560208601610e65565b6109f981610fb7565b840191505092915050565b6000610a11603483610db3565b91507f547279696e6720746f207769746864726177206d6f7265206d6f6e657920746860008301527f616e2074686520636f6e7472616374206861732e0000000000000000000000006020830152604082019050919050565b6000610a77602783610db3565b91507f4661696c656420746f207769746864726177206d6f6e65792066726f6d20636f60008301527f6e74726163742e000000000000000000000000000000000000000000000000006020830152604082019050919050565b6000610add600083610d97565b9150600082019050919050565b6000610af7602983610db3565b91507f4d75737420776169742031206d696e75746573206265666f72652073656e646960008301527f6e6720616761696e2e00000000000000000000000000000000000000000000006020830152604082019050919050565b6000606083016000830151610b6860008601826108ff565b5060208301518482036020860152610b808282610992565b9150506040830151610b956040860182610ba0565b508091505092915050565b610ba981610e4c565b82525050565b610bb881610e4c565b82525050565b6000610bc982610ad0565b9150819050919050565b60006020820190508181036000830152610bed818461091d565b905092915050565b60006020820190508181036000830152610c0f81846109cb565b905092915050565b60006040820190508181036000830152610c3181856109cb565b9050610c40602083018461090e565b9392505050565b60006020820190508181036000830152610c6081610a04565b9050919050565b60006020820190508181036000830152610c8081610a6a565b9050919050565b60006020820190508181036000830152610ca081610aea565b9050919050565b6000602082019050610cbc6000830184610baf565b92915050565b6000604082019050610cd76000830185610baf565b8181036020830152610ce981846109cb565b90509392505050565b6000604051905081810181811067ffffffffffffffff82111715610d1957610d18610f88565b5b8060405250919050565b600067ffffffffffffffff821115610d3e57610d3d610f88565b5b601f19601f8301169050602081019050919050565b6000819050602082019050919050565b600081519050919050565b600081519050919050565b6000602082019050919050565b600082825260208201905092915050565b600081905092915050565b600082825260208201905092915050565b600082825260208201905092915050565b6000610dcf82610e4c565b9150610dda83610e4c565b9250827fffffffffffffffffffffffffffffffffffffffffffffffffffffffffffffffff03821115610e0f57610e0e610efb565b5b828201905092915050565b6000610e2582610e2c565b9050919050565b600073ffffffffffffffffffffffffffffffffffffffff82169050919050565b6000819050919050565b82818337600083830152505050565b60005b83811015610e83578082015181840152602081019050610e68565b83811115610e92576000848401525b50505050565b60006002820490506001821680610eb057607f821691505b60208210811415610ec457610ec3610f59565b5b50919050565b6000610ed582610e4c565b9150610ee083610e4c565b925082610ef057610eef610f2a565b5b828206905092915050565b7f4e487b7100000000000000000000000000000000000000000000000000000000600052601160045260246000fd5b7f4e487b7100000000000000000000000000000000000000000000000000000000600052601260045260246000fd5b7f4e487b7100000000000000000000000000000000000000000000000000000000600052602260045260246000fd5b7f4e487b7100000000000000000000000000000000000000000000000000000000600052604160045260246000fd5b6000601f19601f8301169050919050565b610fd181610e1a565b8114610fdc57600080fd5b5056fea26469706673582212207b19154c41c7adc116155461f6357ea48b577ca26b14a05ad331f7769418688964736f6c63430008000033",
  "linkReferences": {},
  "deployedLinkReferences": {}
}